:100000000C9446000C9419170C9465000C94650030
:100010000C9465000C94E7150C9465000C94341650
:100020000C9465000C94BC1A0C9465000C9465004B
:100030000C9465000C9465000C9465000C944124AC
:100040000C9465000C9465000C941E250C946500BE
:100050000C9490180C940A230C9465000C94650081
:100060000C9465000C9465000C9465000C9465007C
:100070000C9465000C9450180C94571A0C9465005D
:100080000C9462180C9465000C94650011241FBE3A
:10009000CFEFD0E1DEBFCDBF13E0A0E0B1E0EAEBEF
:1000A000FAEA00E00BBF02C007900D92A034B1073E
:1000B000D9F717E0A0E4B3E001C01D92A233B10765
:1000C000E1F70E944F0F0C945B550C940000809355
:1000D000020108958093030108958093010108951A
:1000E00080930001089584E190E064E152E14CE0E6
:1000F00038E025E0FC01E55BFA4F6083FC01EA5C37
:10010000FA4F5083FC01E05AFA4F4083FC01EB5850
:10011000FA4F3083FC01EF5DFA4F2083653009F020
:10012000615054300CF05150411141503111315057
:100130002111215065300CF465E0019751F057FD15
:1001400050E047FD40E037FD30E027FFD3CF20E00F
:10015000D1CF0895853099F1863044F4823039F159
:10016000843009F44BC0813061F413C08631B1F0A2
:1001700087311CF4853129F407C0873371F182344B
:1001800089F12FEF3FEF4BC08091870380FD1BC0AB
:1001900044C080918703282F30E039C080918703C5
:1001A00080FF3BC08091870381FD09C036C08091EC
:1001B000870380FF32C08091870386950AC08091B3
:1001C000870385FF2AC0809187038295869586954F
:1001D00083708170282F30E022C08091870380FFD8
:1001E0000DC018C08091870380FF04C080918703F1
:1001F00081FD10C08091870385FF0FC08091870328
:10020000282F30E086E0369527958A95E1F7217012
:10021000307005C021E030E002C020E030E0C901CC
:100220000895853039F186303CF48230C1F0843055
:10023000B9F1813061F40EC0863131F187311CF49F
:10024000853129F41CC08733D1F08234E9F02FEFD7
:100250003FEF37C080918703282F30E02AC080917C
:10026000870380FD29C080918703282F30E03695D1
:1002700027951FC08091870385FF12C01DC0809104
:10028000870380FF0DC018C08091870380FF04C0E2
:100290008091870381FD10C08091870385FF0FC087
:1002A00080918703282F30E096E0369527959A9520
:1002B000E1F72170307005C021E030E002C020E09D
:1002C00030E0C901089580917B038530E9F18630E3
:1002D00080F4823051F1833030F48823E1F08130B2
:1002E00009F058C01DC0833029F1843009F052C094
:1002F00026C08830C1F1893030F4863051F1873022
:1003000009F048C02BC08A30C1F18A3088F18B30A7
:1003100009F040C039C081E061E040E150E031C007
:1003200080E061E041E150E02CC081E062E042E128
:1003300050E027C081E063E043E150E022C081E06B
:1003400062E044E150E01DC081E063E045E150E03F
:1003500018C081E064E046E150E013C080E064E052
:1003600047E150E00EC081E065E048E150E009C09F
:1003700081E066E049E150E004C081E065E04AE1E7
:1003800050E00E94EC43089581E066E04BE150E0CC
:100390000E94EC43089580934103909342030E948E
:1003A000EF350895EF92FF920F931F93FC01DC014C
:1003B000AA5CBA4F9C01205A3A4F8C010B581A4F35
:1003C00051E2E52E55E0F52EE80EF91EE55BFA4FF9
:1003D00080816C91F9014081F8012081F701008151
:1003E0000E9459151F910F91FF90EF900895CF92A1
:1003F000DF92EF92FF920F931F937C01FC01E55B6C
:10040000FA4FDC01AA5CBA4F9C01205A3A4F8C018A
:100410000B581A4F61E2C62E65E0D62EC80ED91EC3
:1004200080816C91F9014081F8012081F601008101
:100430000E945915F5E0EF16F10439F485E063E008
:1004400041E021E001E00E94591500E08091D505CE
:1004500090E0209143033091440382179307D4F531
:100460008091870380FD29C08091870381FD25C08D
:100470008091870382FD21C08091870383FD1DC089
:100480008091870384FD19C08091870385FD15C085
:100490008091870386FD11C0002331F41092A103DF
:1004A0001092A00301E012C08091A0039091A103DB
:1004B000C29760F020E030E012C08091870380FD99
:1004C0000CC08091870386FD08C000E084E10E9493
:1004D0000129BCCF22E030E002C021E030E0C901B8
:1004E0001F910F91FF90EF90DF90CF9008952F9282
:1004F0003F924F925F926F927F928F929F92AF92B4
:10050000BF92CF92DF92EF92FF920F931F93DF93F0
:10051000CF9300D000D0CDB7DEB7182F992787FD35
:100520009095BBE46B2EB5E07B2E680E791EA6E39A
:100530008A2EA5E09A2E880E991EF0E6AF2EF5E0E1
:10054000BF2EA80EB91EE5E7CE2EE5E0DE2EC80EC2
:10055000D91E71E2E72E75E0F72EE80EF91E1C8217
:100560001B829A838983262E332427FC3094442EC1
:10057000552447FC50943AC0F3018081F401608116
:10058000F5014081F6012081F70100810E94591593
:100590001092A1031092A0030B81010F0BC0802FBA
:1005A0000E9401298091870380FD2AC080918703E2
:1005B00086FD26C08091A0039091A103481659069C
:1005C00070F72B813C812F5F3F4F3C832B83089436
:1005D000611C711C0894811C911C0894A11CB11C05
:1005E0000894C11CD11C0894E11CF11C89819A81DA
:1005F000EB81FC818E0F9F1F281639060CF0BCCFB3
:100600000F900F900F900F90CF91DF911F910F914E
:10061000FF90EF90DF90CF90BF90AF909F908F9022
:100620007F906F905F904F903F902F900895CF9262
:10063000DF92EF92FF920F931F93DF93CF9300D03F
:10064000CDB7DEB76C01FC01E55BFA4FDC01AA5CBB
:10065000BA4F9C01205A3A4F8C010B581A4F81E235
:10066000E82E85E0F82EEC0CFD1C80816C91F901E0
:100670004081F8012081F70100810E9459151A82FA
:1006800019828091870380FD04C08091870386FFD3
:1006900010C08091870380FF02C0F1E0FA8380914F
:1006A000870386FF02C081E0898384E10E940129DB
:1006B000E8CFA6014A5C5A4FD601A05ABA4F96011C
:1006C0002B583A4F86010F5D1A4FEBE4F5E0CE0E42
:1006D000DF1EF6018081FA0160814C91F9012081D1
:1006E000F80100810E94591584E164E148EC50E072
:1006F0000E947F33FA81F13049F48981813019F009
:1007000020E030E00BC022E030E008C09981913059
:1007100019F023E030E002C021E030E0C9010F9081
:100720000F90CF91DF911F910F91FF90EF90DF908D
:10073000CF90089561157105A1F4809147039091C0
:100740004803019731F484EF68E040E00E94FB3AEF
:1007500004C087E06FEF0E94053B85E08093400373
:1007600008956130710599F4809147039091480391
:10077000019731F488E064EF40E00E94B33C04C08C
:1007800087E06FEF0E94BD3C85E0809340030895B1
:100790007F928F929F92AF92BF92CF92DF92EF9211
:1007A000FF920F931F93CF93DF935C016B01EE24B5
:1007B000FF2463E0862E912C7724739402C0EE24EC
:1007C000FF241092A3031092A203C6010E94F70116
:1007D0009C01C0910601D09107012196D093070199
:1007E000C09306018091A2039091A30385369105E1
:1007F00010F0EE24FF2421303105B9F5C6010E9426
:100800001703FE01EE0FFF1FEC0FFD1FEB50FC4F17
:10081000808380910601909107012091A20330917D
:10082000A303FC01EE0FFF1FE80FF91FEB50FC4F75
:1008300032832183E081E13091F0E13060F0E230F9
:1008400009F0BDCFA114B10431F021E0A216B1042A
:1008500009F0B5CF04C0C60160E070E003C0C60176
:1008600061E070E00E949A03AACF2115310509F0DA
:100870009FC0909242038092410383E00E94EF3533
:10088000809106019091070121E0E216F10421F424
:100890008C010250104003C08C0101501040109395
:1008A000070100930601C6010E94F701C6010E94DC
:1008B0001703E801CC0FDD1FC00FD11FCB50DC4F59
:1008C0008881882321F4C60161E070E005C0813091
:1008D00041F4C60160E070E00E949A0383E08883DF
:1008E0003DC0823061F4A114B10411F478823FC09C
:1008F00081E0A816B10409F051C0188245C08330C8
:1009000009F04EC0809106019091070101979093E4
:10091000070180930601C6010E94F701C6010E94EB
:1009200017038091060190910701FC01EE0FFF1F54
:10093000E80FF91FEB50FC4F8081882331F483E0EE
:100940008083C60161E070E007C0813059F483E024
:100950008083C60160E070E00E949A0391E0E92E76
:10096000F12C1EC0823071F6A114B10449F4C60105
:1009700061E070E00E949A03C60161E070E00CC083
:1009800021E0A216B10451F4C60160E070E00E94BB
:100990009A03C60160E070E00E949A03EE24FF24EF
:1009A000109242031092410380E00E94EF3509CF7C
:1009B0002230310509F005CF8091A2039091A30365
:1009C0009093460380934503DF91CF911F910F9140
:1009D000FF90EF90DF90CF90BF90AF909F908F905F
:1009E0007F9008958F929F92AF92BF92CF92DF92A5
:1009F000EF92FF920F931F93CF93DF934C01EB0184
:100A000083E090E0909342038093410383E00E944F
:100A1000EF35C0900601D09007010894C108D108B5
:100A20007601EE0CFF1CEC0CFD1C85EF93E0E80E4C
:100A3000F91EAA24BB248AC0F7018081833099F46F
:100A400085E063E041E021E001E00E94591587E084
:100A500064E140E050E00E94F83ECE010E9417039E
:100A600064E070E047C0882389F485E063E041E0FA
:100A700021E001E00E94591587E064E140E050E088
:100A80000E94F83ECE010E94170328C0813089F4ED
:100A900085E063E041E021E001E00E94591587E034
:100AA00064E140E050E00E94F83ECE010E9417034E
:100AB0001CC08230E9F485E063E041E021E001E020
:100AC0000E94591587E064E140E050E00E94F83E42
:100AD000CE010E9417038114910419F461E070E0C3
:100AE00009C0F1E08F16910419F460E070E002C0D3
:100AF0006FEF7FEFA114B104F9F46115710569F48A
:100B0000109242031092410380E00E94EF35E1E031
:100B1000AE2EB12C61E070E00FC06130710561F460
:100B2000109242031092410380E00E94EF3571E081
:100B3000A72EB12C60E070E0CE010E949A030894C9
:100B4000C108D1088DEF9FEFE80EF91ED7FE74CFD4
:100B5000FE01EA5CFA4FDE01A05ABA4F9E012B5803
:100B60003A4F8E010F5D1A4FC55BDA4F8881608165
:100B70004C91F9012081F80100810E94591500E093
:100B80008091870380FD28C08091870381FD24C068
:100B90008091870382FD20C08091870383FD1CC064
:100BA0008091870384FD18C08091870385FD14C060
:100BB0008091870386FD10C0002331F41092A103B9
:100BC0001092A00301E009C08091A0039091A103BD
:100BD0008436910510F005C000E084E10E940129EF
:100BE000CFCFDF91CF911F910F91FF90EF90DF90CA
:100BF000CF90BF90AF909F908F9008950F931F93C9
:100C00008C01FC01E55BFA4F64E18081681B862F53
:100C10000E942114802F602F0E94C0141F910F91F9
:100C20000895282F8091870382FD08C08091870353
:100C300083FD04C08091870384FF04C0822F0E943B
:100C400001290895822F0E94FE0508950F931F9396
:100C5000CF93DF93882329F187FF0CC06195482F3C
:100C6000552747FD5095509541955F4F862F0E941F
:100C70007F3317C01092A1031092A003082F1127F1
:100C800007FD1095C62FDD27C7FDD09503C0CE0107
:100C90000E9411068091A0039091A10380179107F3
:100CA000B0F3DF91CF911F910F9108952F923F9252
:100CB0004F925F926F927F928F929F92AF92BF926C
:100CC000CF92DF92EF92FF920F931F93DF93CF9318
:100CD000CDB7DEB727970FB6F894DEBF0FBECDBFF6
:100CE000582E462E49832A830B83862F992787FD0A
:100CF0009095EBE46E2EE5E07E2E680E791E76E38D
:100D0000872E75E0972E880E991E60E6A62E65E068
:100D1000B62EA80EB91E55E7C52E55E0D52EC80E25
:100D2000D91E41E2E42E45E0F42EE80EF91E142D02
:100D30001F821E829D838C8340C02C803D808E81CB
:100D40009F81280E391EF3018081F4016081F50135
:100D50004081F6012081F70100810E94591510920F
:100D6000A1031092A00308C0852D0E94AA00892B20
:100D7000A9F5812F0E9401292091A0033091A103A0
:100D800080910001992787FD90958217930760F75E
:100D90001F5F8E819F8101969F838E830894611CC3
:100DA000711C0894811C911C0894A11CB11C08940E
:100DB000C11CD11C0894E11CF11C998191170CF005
:100DC000BCCF1092A1031092A003EA81EE2EFF2463
:100DD000E7FCF09411C0C1010E941106852D0E940C
:100DE0001101892BC1F78EC0852D0E94AA00892B85
:100DF00089F5812F0E9401298091A0039091A10380
:100E0000E816F90688F7812F992787FD90953BE42E
:100E1000832E35E0932E880E991E26E3A22E25E020
:100E2000B22EA80EB91E00E6C02E05E0D02EC80EC8
:100E3000D91EB5E7EB2EB5E0FB2EE80EF91EA1E2B8
:100E40006A2EA5E07A2E680E791E43C0C7010E9463
:100E5000110604C0E12EFF24E7FCF094852D0E94CA
:100E60001101892B99F74EC0F4018081F501608151
:100E7000F6014081F7012081F30100810E9459159C
:100E80001092A1031092A00308C0852D0E94AA0011
:100E9000892B79F5812F0E9401292091A00330919F
:100EA000A10380910101992787FD909582179307EF
:100EB00060F711500894810891080894A108B108BE
:100EC0000894C108D1080894E108F1080894610861
:100ED000710814154CF603C0812F0E940129852D3D
:100EE0000E94AA00892BC1F304C0C7010E94110609
:100EF00004C0E12EFF24E7FCF094852D0E9411012F
:100F0000892B99F7812F6B810E94260680E090E063
:100F100027960FB6F894DEBF0FBECDBFCF91DF91FD
:100F20001F910F91FF90EF90DF90CF90BF90AF9007
:100F30009F908F907F906F905F904F903F902F90F9
:100F400008952F923F924F925F926F927F928F926D
:100F50009F92AF92BF92CF92DF92EF92FF920F9348
:100F60001F93DF93CF93CDB7DEB729970FB6F894D1
:100F7000DEBF0FBECDBF8A834B83282E332427FCD0
:100F80003094BBE4CB2EB5E0DB2EC20CD31CA6E321
:100F90004A2EA5E05A2E420C531CF0E66F2EF5E0C7
:100FA0007F2E620C731CE5E78E2EE5E09E2E820CF0
:100FB000931C71E2A72E75E0B72EA20CB31CEE2491
:100FC000FF243D822C82262F332727FD30953F8337
:100FD0002E8342C0F6018081F2016081F3014081DD
:100FE000F4012081F50100810E9459151092A1039E
:100FF0001092A0030A810E0D102F11950FC0809141
:10100000870386FD36C0F601808164E1681B862F68
:101010000E942114802F612F0E94C0142091A003F0
:101020003091A10380910201992787FD9095821745
:10103000930728F70894E11CF11C0894C11CD11CEB
:101040000894411C511C0894611C711C0894811C5B
:10105000911C0894A11CB11C2C813D812E0D3F1DBB
:10106000398728874E815F81421753070CF0B2CF32
:101070006CC06BE4E62E65E0F62E88859985E80E57
:10108000F91E56E3652E55E0752E680E791E40E672
:10109000842E45E0942E880E991E35E7A32E35E068
:1010A000B32EA80EB91E21E2C22E25E0D22EC80E04
:1010B000D91E14E1F7018081F3016081F4014081C0
:1010C000F5012081F60100810E9459151092A103BB
:1010D0001092A0030885502E51940FC08091870371
:1010E00085FD2FC1F7018081612F681B862F0E942B
:1010F0002114802F652D0E94C0142091A0033091EF
:10110000A10380910201992787FD9095821793078B
:1011100028F7288539852F5F3F4F3987288708941E
:10112000E11CF11C0894611C711C0894811C911C29
:101130000894A11CB11C0894C11CD11C4E815F8174
:10114000421753070CF0B6CF1CC09BE4E92E95E084
:10115000F92E88859985E80EF91E14E10885D02EB0
:10116000D1948091870385FDECC0F7018081612FC8
:10117000681B862F0E942114802F6D2D0E94C014A1
:10118000F0CF8BE4E82E85E0F82E28853985E20E35
:10119000F31E14E10885D02ED1948091870385FF3A
:1011A00002C019820CC0F7018081612F681B862F55
:1011B0000E942114802F6D2D0E94C014EECF0BE4ED
:1011C000E02E05E0F02E28853985E20EF31E14E1AD
:1011D0000885D02ED1948091870384FF1CC016E32C
:1011E000612E15E0712E48855985640E751EB0E696
:1011F0008B2EB5E09B2E840E951EA5E7AA2EA5E0AA
:10120000BA2EA40EB51EF1E2CF2EF5E0DF2EC40EED
:10121000D51E14E153C0F7018081612F681B862F12
:101220000E942114802F6D2D0E94C014D4CFF7018D
:101230008081F3016081F4014081F5012081F60194
:1012400000810E9459151092A1031092A0030885F5
:10125000502E51940FC08091870383FD35C0F70154
:101260008081612F681B862F0E942114802F652D9D
:101270000E94C0142091A0033091A103809103012A
:10128000992787FD90958217930728F70894E1081E
:10129000F10808946108710808948108910808947D
:1012A000A108B1080894C108D108F981F13061F0B2
:1012B00028853985215030403987288748855985C8
:1012C000421553050CF0B3CF5B815523A1F0252FB8
:1012D000332727FD309557FF08C06885619544275F
:1012E0005527421B530B888504C0888581956885E6
:1012F000A9010E947F331092400383E0809305018F
:1013000084E164E10E94211480E060E00E94C01446
:1013100029960FB6F894DEBF0FBECDBFCF91DF91F7
:101320001F910F91FF90EF90DF90CF90BF90AF9003
:101330009F908F907F906F905F904F903F902F90F5
:10134000089581E089833BCF2F923F924F925F9225
:101350006F927F928F929F92AF92BF92CF92DF92C5
:10136000EF92FF920F931F93DF93CF93CDB7DEB72A
:1013700029970FB6F894DEBF0FBECDBF8A834B838B
:10138000282E332427FC30944BE4C42E45E0D42E81
:10139000C20CD31C36E3432E35E0532E420C531CB3
:1013A00020E6622E25E0722E620C731C95E7892ED2
:1013B00095E0992E820C931C81E2A82E85E0B82E30
:1013C000A20CB31CEE24FF243D822C82262F33274F
:1013D00027FD30953F832E8342C0F6018081F201C4
:1013E0006081F3014081F4012081F50100810E94B8
:1013F00059151092A1031092A0030A810E0D102F0F
:1014000011950FC08091870380FD36C0F601808161
:1014100064E1681B862F0E942114812F602F0E9497
:10142000C0142091A0033091A1038091020199275B
:1014300087FD90958217930728F70894E11CF11C0B
:101440000894C11CD11C0894411C511C0894611CB7
:10145000711C0894811C911C0894A11CB11C2C8146
:101460003D812E0D3F1D398728878E819F818217F0
:1014700093070CF0B2CF6CC00BE4E02E05E0F02E29
:10148000E885F985EE0EFF1E16E3612E15E0712E3C
:101490006E0E7F1EB0E68B2EB5E09B2E8E0E9F1E2D
:1014A000A5E7AA2EA5E0BA2EAE0EBF1E71E2C72E8A
:1014B00075E0D72ECE0EDF1E14E1F7018081F30117
:1014C0006081F4014081F5012081F60100810E94D4
:1014D00059151092A1031092A0030885502E519423
:1014E0000FC08091870381FD2FC1F7018081612F9B
:1014F000681B862F0E942114852D602F0E94C01426
:101500002091A0033091A10380910201992787FDCA
:1015100090958217930728F7288539852F5F3F4FCD
:10152000398728870894E11CF11C0894611C711C00
:101530000894811C911C0894A11CB11C0894C11C26
:10154000D11C8E819F81821793070CF0B6CF1CC0EF
:101550006BE4E62E65E0F62EE885F985EE0EFF1EBB
:1015600014E10885D02ED1948091870382FDECC0D0
:10157000F7018081612F681B862F0E9421148D2D19
:10158000602F0E94C014F0CF5BE4E52E55E0F52EED
:1015900028853985E20EF31E14E10885D02ED194FA
:1015A0008091870382FF02C019820CC0F7018081FD
:1015B000612F681B862F0E9421148D2D602F0E94A1
:1015C000C014EECF4BE4E42E45E0F42E2885398597
:1015D000E20EF31E14E10885D02ED194809187038A
:1015E00082FF1CC036E3632E35E0732E8885998513
:1015F000680E791E20E6822E25E0922E880E991E16
:1016000005E7A02E05E0B02EA80EB91E11E2C12EEE
:1016100015E0D12EC80ED91E14E153C0F701808108
:10162000612F681B862F0E9421148D2D602F0E9430
:10163000C014D4CFF7018081F3016081F4014081AF
:10164000F5012081F60100810E9459151092A10335
:101650001092A0030885502E51940FC080918703EB
:1016600083FD35C0F7018081612F681B862F0E94A2
:101670002114852D602F0E94C0142091A003309169
:10168000A10380910301992787FD90958217930705
:1016900028F70894E108F108089461087108089493
:1016A000810891080894A108B1080894C108D108DC
:1016B000F981F13061F02885398521503040398732
:1016C000288788859985821593050CF0B3CF9B8177
:1016D0009923A1F0292F332727FD309597FF08C0C4
:1016E00044275527421B530B88858195688504C084
:1016F000688561958885A9010E947F331092400317
:1017000083E08093050184E164E10E94211480E07C
:1017100060E00E94C01429960FB6F894DEBF0FBE99
:10172000CDBFCF91DF911F910F91FF90EF90DF9090
:10173000CF90BF90AF909F908F907F906F905F9071
:101740004F903F902F900895E1E0E9833BCF5F9267
:101750006F927F928F929F92AF92BF92CF92DF92C1
:10176000EF92FF920F931F93CF93DF93782E642E07
:10177000862F992787FD9095ABE48A2EA5E09A2EB7
:10178000880E991EF6E3AF2EF5E0BF2EA80EB91E07
:10179000E0E6CE2EE5E0DE2EC80ED91E75E7E72E78
:1017A00075E0F72EE80EF91EEC01CF5DDA4F162F2B
:1017B00053E0552E39C0F4018081F5016081F601B6
:1017C0004081F701208108810E9459151092A103E0
:1017D0001092A0030FC0872D0E94AA00892BC1F58B
:1017E00084E10E94012980914003859D802D112470
:1017F0000E948C1B2091A0033091A10380910001D5
:10180000992787FD90958217930728F71F5F089403
:10181000811C911C0894A11CB11C0894C11CD11CF2
:101820000894E11CF11C219661162CF60BC084E192
:101830000E94012980914003809F802D11240E94E5
:101840008C1B01C003E0872D0E94AA00892B79F32D
:10185000212F332727FD3095C901DF91CF911F91AB
:101860000F91FF90EF90DF90CF90BF90AF909F903F
:101870008F907F906F905F900895EF92FF920F93FB
:101880001F93F82EE22E0E94A70B182F092F04C0D9
:10189000812F902F0E9411068F2D0E941101892BFC
:1018A000B9F78E2D612F0E9426061093400381E028
:1018B0008093050184E164E10E94211480E060E0EE
:1018C0000E94C0141F910F91FF90EF9008950F9305
:1018D0001F93022F0E94A70B182F802F612F0E94A9
:1018E00026061093400381E08093050180E060E0CC
:1018F0000E94C0141F910F910895EF92FF920F93D1
:101900001F93CF93DF93F82E122FE02E0E94A70B88
:10191000082FC12FDD27C7FDD09503C0CE010E943F
:1019200011068F2D0E941101892BC1F78E2D612F79
:101930000E9426060093400381E08093050184E124
:1019400064E10E94211480E060E00E94C014DF91F5
:10195000CF911F910F91FF90EF9008955F926F923A
:101960007F928F929F92AF92BF92CF92DF92EF922F
:10197000FF920F931F93CF93DF93782E662E842FC1
:10198000992787FD90953BE4832E35E0932E880EB2
:10199000991E26E3A22E25E0B22EA80EB91E00E65F
:1019A000C02E05E0D02EC80ED91E15E7E12E15E099
:1019B000F12EE80EF91EEC01CF5DDA4F142FB3E0E3
:1019C0005B2E39C0F4018081F5016081F601408110
:1019D000F701208108810E9459151092A1031092ED
:1019E000A0030FC0872D0E94AA00892BC1F5812F6B
:1019F0000E94012980914003859D802D11240E9421
:101A00008C1B2091A0033091A103809101019927A3
:101A100087FD90958217930728F711500894810845
:101A200091080894A108B1080894C108D108089445
:101A3000E108F108219716152CF60BC0812F0E94A2
:101A4000012980914003809F802D11240E948C1BCE
:101A500001C003E0872D0E94AA00892B79F3212F72
:101A6000332727FD3095C901DF91CF911F910F9149
:101A7000FF90EF90DF90CF90BF90AF909F908F90AE
:101A80007F906F905F900895EF92FF920F931F9356
:101A9000F82EE22E0E94AE0C182F092F04C0812FC1
:101AA000902F0E9411068F2D0E941101892BB9F7EA
:101AB0008E2D612F0E9426061093400382E08093B2
:101AC000050184E164E10E94211480E060E00E944D
:101AD000C0141F910F91FF90EF9008950F931F93E3
:101AE000022F0E94AE0C182F802F612F0E94260615
:101AF0001093400382E08093050184E164E10E9439
:101B0000211480E060E00E94C0141F910F9108959D
:101B1000EF92FF920F931F93CF93DF93F82E122F24
:101B2000E02E0E94AE0C082FC12FDD27C7FDD095F7
:101B300003C0CE010E9411068F2D0E941101892B36
:101B4000C1F78E2D612F0E9426060093400381E08D
:101B50008093050184E164E10E94211480E060E04B
:101B60000E94C014DF91CF911F910F91FF90EF90D1
:101B70000895CF92DF92EF92FF920F931F93962FCB
:101B8000C42ED0904003D61651F5ED2DFF27E7FD6A
:101B9000F095DF01AA5CBA4F9F01205A3A4F8F019E
:101BA0000B581A4F41E2E42E45E0F42EEE0EFF1ED4
:101BB000E55BFA4F80816C91F9014081F801208149
:101BC000F70100810E94591587E06D2D40E050E03B
:101BD0000E94F83E8C2D6D2D0E9426060FC0D61651
:101BE00034F46D2D492F2C2D0E943D0C07C06D152E
:101BF0002CF44D2D2AE00C2D0E94880D1092050129
:101C00001F910F91FF90EF90DF90CF900895AF92CA
:101C1000BF92CF92DF92EF92FF920F931F93CF93D9
:101C2000DF936C015B0183E090E09093420380932B
:101C3000410383E00E94EF350091060110910701F6
:101C400001501040E801CC0FDD1FC00FD11FCB5059
:101C5000DC4FEE24FF2459C08881833041F487E3B0
:101C600064E140E00E94B90D64E070E026C0882382
:101C700031F487E360E14FEF0E94B90D12C081306B
:101C800031F487E360E14FEF0E94B90D11C082305B
:101C900091F487E360E14FEF0E94B90DC114D104C4
:101CA00019F461E070E009C081E0C816D10419F4AC
:101CB00060E070E002C06FEF7FEFE114F104F9F42F
:101CC0006115710569F4109242031092410380E09E
:101CD0000E94EF3561E0E62EF12C61E070E00FC06C
:101CE0006130710561F4109242031092410380E06B
:101CF0000E94EF3551E0E52EF12C60E070E0C50167
:101D00000E949A0301501040239717FFA5CF80919E
:101D10005F0560914A054091740520918905009105
:101D200035050E94591510E08091870380FD28C079
:101D30008091870381FD24C08091870382FD20C0AC
:101D40008091870383FD1CC08091870384FD18C0A8
:101D50008091870385FD14C08091870386FD10C0A4
:101D6000112331F41092A1031092A00311E009C0D5
:101D70008091A0039091A1038436910510F005C0D5
:101D800010E084E10E940129CFCFDF91CF911F9114
:101D90000F91FF90EF90DF90CF90BF90AF9008959C
:101DA0000F931F93CF93DF93EC0110924203109295
:101DB000410380E00E94EF35E5EFF3E084E08083AB
:101DC00012821182339625E0E432F207C1F71092B5
:101DD000A1031092A00304C08091630084FF08C097
:101DE0008091A0039091A103885E9340A8F34DC019
:101DF00083E064E670E044E650E00E94F52C01E0E8
:101E000010E08091630084FDFCCF8CE291E00E94A1
:101E1000B3338091D505809343031092440382E04D
:101E200064E670E044E650E00E94F52C84EF91E017
:101E30000E94B33381E00E94532DCE0165E070E033
:101E40000E94C80383E090E0909342038093410393
:101E500083E00E94EF35012B41F4CE0160E170E098
:101E60000E94070E81E090E007C0CE0165E070E0BF
:101E70000E94F20482E090E090934803809347032D
:101E8000DF91CF911F910F91089582E064E670E099
:101E900044E650E00E94F52C00E010E0B2CF0F9332
:101EA00080E061E00E94134A80E00E94EF3580E00C
:101EB00060ED77E00E94FD1B84E162E14FE02DE0E0
:101EC0000AE00E9459158AE069E048E025E000E058
:101ED0000E94871584E164E142E12AE003E00E9468
:101EE000F32282E00E94C93481E061E00E94521531
:101EF0008FEF6FEF0E94B51480E090E00E943C36B7
:101F000080E80E94A01B0E9473008AE08093000179
:101F100088E08093010181E090E064E170E00E943C
:101F2000D00E8AE060E040E00E94A64580E090E0AC
:101F30000F910895BF92CF92DF92EF92FF920F938D
:101F40001F93CF93DF93182FB62ED42EC22E10924C
:101F5000A1031092A003FF24C02FDD27C7FDD09559
:101F60000AC0812F0E94AA00892B11F0FF24F3944C
:101F70008D2D0E9401298091A0039091A103C81783
:101F8000D90778F7FF2061F4812F6B2D4D2D2C2D73
:101F90000E2D0E94880D11C0CE010E94110604C0B2
:101FA000CC2DDD27C7FDD095812F0E941101892BF3
:101FB00099F780E060E00E94C014DF91CF911F91FB
:101FC0000F91FF90EF90DF90CF90BF9008952F92E8
:101FD0003F924F925F926F927F928F929F92AF92B9
:101FE000BF92CF92DF92EF92FF920F931F93CF9306
:101FF000DF93682E342E202E862F992787FD90950B
:10200000BBE48B2EB5E09B2E880E991EA6E3AA2E6C
:10201000A5E0BA2EA80EB91EF0E6CF2EF5E0DF2E11
:10202000C80ED91EE5E7EE2EE5E0FE2EE80EF91EFD
:10203000EC01CF5DDA4F162F7724422E552447FC52
:1020400050946AC0F4018081F5016081F6014081FD
:10205000F701208108810E9459151092A103109266
:10206000A0033FC08091870380FD29C08091870332
:1020700081FD25C08091870382FD21C08091870367
:1020800083FD1DC08091870384FD19C08091870363
:1020900085FD15C08091870386FD11C0772039F436
:1020A0001092A5031092A403772473940FC080911B
:1020B000A4039091A5034816590640F447C0862D05
:1020C0000E94AA00892B09F041C07724812F0E9429
:1020D000012980914003F3E08F9F802D11240E94FD
:1020E0008C1B2091A0033091A103809100019927BE
:1020F00087FD90958217930708F0B4CF1F5F08946F
:10210000811C911C0894A11CB11C0894C11CD11CF9
:102110000894E11CF11C219631160CF093CF0BC0F2
:10212000812F0E94012980914003809F802D1124DE
:102130000E948C1B01C003E0862D0E94AA00892BFF
:1021400079F304C0CE010E94110604C0C12FDD271F
:10215000C7FDD095862D0E941101892B99F7822DFC
:10216000612F0E9426061093400381E080930501B1
:1021700084E164E10E94211480E060E00E94C014C8
:10218000DF91CF911F910F91FF90EF90DF90CF9053
:10219000BF90AF909F908F907F906F905F904F9087
:1021A0003F902F900895CF92DF92EF92FF920F937E
:1021B0001F93DF93CF9300D0CDB7DEB7182F962FA4
:1021C000C42ED0904003D61609F03FC0ED2DFF2756
:1021D000E7FDF095AF014A5C5A4F9F01205A3A4FF4
:1021E000CF018B589A4F9A83898301E2E02E05E054
:1021F000F02EEE0EFF1EE55BFA4F8081DA016C9146
:10220000F9014081A981BA812C91F70100810E94D6
:102210005915143071F0153119F0113021F406C040
:1022200081E490E008C080E090E005C081E090E0AB
:1022300002C080E490E06D2D40E050E00E94232F2A
:102240008C2D6D2D0E9426060EC0D61634F46D2DF1
:10225000492F2C2D0E94670C06C06D1524F44D2DBE
:102260002C2D0E946E0D1092050184E164E10E9404
:10227000211480E060E00E94C0140F900F90CF9175
:10228000DF911F910F91FF90EF90DF90CF90089515
:102290001F93182F8A3019F48DE00E9448115D9B1E
:1022A000FECF1CB980E090E01F9108951F93182F76
:1022B0008A3019F48DE00E9456115D9BFECF1CB947
:1022C00080E090E01F9108959B01AC0182E289B902
:1022D000203187E2380780E0480780E05807C8F4DB
:1022E000BB27A52F942F832F982F622F5D9BFECFA6
:1022F0008BEA8CB95D9BFECF8AEB8CB95D9BFECFE0
:102300009CB95D9BFECF6CB95D9BFECF960F9CB9CF
:102310000895203482E438078FE0480780E05807AA
:1023200018F5CA01AA27BB27E82FBB27A52F942F92
:10233000832F982F622F5D9BFECF8CEA8CB95D9B1B
:10234000FECF8AEB8CB95D9BFECF1CB85D9BFECFA8
:10235000ECB95D9BFECF9CB95D9BFECF6CB95D9BDC
:10236000FECFE90FE60FECB9089580FF02C080E0D0
:10237000089581FF02C081E0089582FF02C082E0DB
:10238000089583FF02C083E0089584FF02C084E0C3
:10239000089585FF02C085E0089586FD02C087E0AC
:1023A000089586E00895882311F48BE003C08130FE
:1023B00021F48AE08093AE010895823019F489E017
:1023C0008093AE0108959C011092C7061092C60634
:1023D00011C000000000000000000000000000002C
:1023E00000008091C6069091C70601969093C7069B
:1023F0008093C6068091C6069091C7068217930700
:1024000040F308950F931F93DF93CF9300D0CDB780
:10241000DEB78C011A82198209C08EED93E00E940A
:10242000E31189819A8101969A83898389819A81AE
:102430008017910790F30F900F90CF91DF911F912C
:102440000F9108958093AC01089580936303609386
:1024500064030895809365036093660308958093F1
:1024600067036093680308958093690360936A0328
:1024700008951F938C3E0CF48CEE182F85310CF0D0
:1024800014E18091BA03882309F053C09091CC03E2
:102490008091DB01981789F08091CC038093DB0158
:1024A00019BC18BC8FB58F7C8FBDC69881E090E0B9
:1024B0000E94E3118FB580628FBD1116BCF481E0DC
:1024C0008093CC03A898A99AE12FF0E0EF53FE4F38
:1024D000908180915B039817D0F0808120915B03FD
:1024E00090E0821B910999BD88BD7BC01123B1F09A
:1024F00082E08093CC03A89AA9981195E12FF0E08F
:10250000EF53FE4F908180915D03981718F48081FE
:1025100090E0E9CF808120915D03E2CF83E080935A
:10252000CC038091BF0190E099BD88BDA89AA99A7B
:1025300058C09091CC038091DB01981799F080915D
:10254000CC038093DB0110927900109278008FB554
:10255000837F8FBDC79881E090E00E94E3118FB523
:1025600088608FBD111694F484E08093CC03AA9AFE
:10257000AB98E12FF0E0EF53FE4F908180915E0326
:102580009817A8F0808120915E0317C01123E9F00D
:1025900085E08093CC03AA98AB9A1195E12FF0E0E7
:1025A000EF53FE4F908180915C03981718F480815F
:1025B00090E006C0808120915C0390E0821B91092D
:1025C00090937900809378000CC086E08093CC03D0
:1025D0008091C00190E09093790080937800AA9A4E
:1025E000AB9A1F9108958091C803882379F4809154
:1025F000BB03882329F48091B8030E9439120895FF
:102600001092C90381E08093C80308958091C903A3
:102610008F5F8093C9038091C903843110F01092B9
:10262000C9032091BB038091C903332727FD30954F
:1026300090E0281739071CF48091B80301C080E0AE
:102640000E9439128091BB03882331F48091B80332
:102650000E9439121092C80308951F938C3E0CF407
:102660008CEE182F85310CF014E18091BA03882389
:1026700009F059C09091CD038091DC01981799F031
:102680008091CD038093DC01109279001092780044
:102690008FB5837F8FBDC79881E090E00E94E311E2
:1026A0008FB588608FBD1116CCF481E08093CD0387
:1026B000AA98AB9AE12FF0E0EF53FE4F9081809102
:1026C0005C039817E0F0808120915C0390E0821B0E
:1026D0009109909379008093780077C01123B1F02D
:1026E00082E08093CD03AA9AAB981195E12FF0E098
:1026F000EF53FE4F908180915E03981718F480810C
:1027000090E0E7CF808120915E03E0CF83E080936B
:10271000CD038091C00190E0909379008093780080
:10272000AA9AAB9A52C09091CD038091DC01981780
:1027300089F08091CD038093DC0119BC18BC8FB562
:102740008F7C8FBDC69881E090E00E94E3118FB529
:1027500080628FBD111694F484E08093CD03A89A13
:10276000A998E12FF0E0EF53FE4F908180915D0337
:102770009817A8F0808120915D0317C01123D9F02C
:1027800085E08093CD03A898A99A1195E12FF0E0F8
:10279000EF53FE4F908180915B03981718F480816E
:1027A00090E006C0808120915B0390E0821B91093C
:1027B00099BD88BD0AC086E08093CD038091BF019A
:1027C00090E099BD88BDA89AA99A1F91089580911B
:1027D000CA03882379F48091BC03882329F480916B
:1027E000B9030E942D1308951092CB0381E08093CA
:1027F000CA0308958091CB038F5F8093CB038091B0
:10280000CB03843110F01092CB032091BC03809154
:10281000CB03332727FD309590E0281739071CF4A8
:102820008091B90301C080E00E942D138091BC0308
:10283000882331F48091B9030E942D131092CA03AA
:1028400008958093BB036093BC030895982F1816D6
:10285000ACF416160CF041C08091BA03882339F409
:102860008091630380935B03809164032AC080910D
:10287000630380935E03809164032CC0882309F472
:1028800044C067FF12C08091BA03882339F4809155
:10289000650380935D03809166032BC0809165037F
:1028A00080935C03809166032DC0662371F1809153
:1028B000BA03882349F48091670380935D03809174
:1028C000680380935C0329C08091670380935C0355
:1028D0008091680380935D0320C06623B1F08091EE
:1028E000BA03882349F48091690380935B03809144
:1028F0006A0380935E0311C08091690380935E0335
:1029000080916A0380935B0308C010925B0310926E
:102910005C0310925D0310925E039093B803609382
:10292000B90308950F931F93182F062F0E942614A2
:10293000812F992787FD909597FF03C090958195EA
:102940009F4F24E1281B602F772767FD709577FF45
:1029500003C0709561957F4F84E1861B2093BB0374
:102960008093BC031F910F9108958093BF016093E2
:10297000C0010895982F80916E0390939603089557
:102980000E942614089580919D038093DF018FEFAC
:102990008093E0018091D4058093E1018091D50579
:1029A0008093E2018091D6058093E3018091D70561
:1029B0008093E4018091D8058093E5018091D90549
:1029C0008093E6018091DA058093E7018091DB0531
:1029D0008093E801809187038F778093E90180914C
:1029E00088038F778093EA018091C5038093EB0180
:1029F0001092EC0122E030E08091EC01F901E35209
:102A0000FE4F9081980F9093EC012F5F3F4F2F3036
:102A1000310591F78FE080935203569A8091DD0142
:102A20008CB90895DF93CF930F92CDB7DEB719829B
:102A300017C0A981B0E0E981F0E0EA53FA4F808144
:102A4000AC52B94F8C93A981B0E0E981F0E0E85530
:102A5000FA4F8081AA53BA4F8C9389818F5F898303
:102A60008981863030F30F90CF91DF910895DF9305
:102A7000CF930F92CDB7DEB719820DC0A981B0E018
:102A8000E981F0E0EC52F94F8081AA53BA4F8C9360
:102A900089818F5F89838981863080F30F90CF9100
:102AA000DF9108958093970384E1861B8093260726
:102AB00008950F9394E1392F381B3093C605892F61
:102AC000861B8093C705892F841B8093C805892F97
:102AD000821B8093C905901B9093CA050F9108959E
:102AE0000F9394E1392F381B3093F805892F861BFB
:102AF0008093F905892F841B8093FA05892F821B07
:102B00008093FB05901B9093FC050F91089594E131
:102B1000392F381B3093A805892F861B8093A90570
:102B2000892F841B8093AA05921B9093AB059093E9
:102B3000AC05089590E09093DA018093D90108954F
:102B4000813041F48FB580688FBD8BE08EBD80E809
:102B50008ABD08958FB58F738FBD8091AE018EBDF4
:102B60001ABC08959C01009769F080E48FBD89E04C
:102B70008EBD3BBD2ABD19BC18BC109279001092C5
:102B80007800089589EA8FBD8091AE018EBD1ABC90
:102B900018BC109278000895813051F489B7816093
:102BA00089BF862F90E09093C3038093C20308955A
:102BB00089B78E7F89BF0895813021F48093A90160
:102BC00069B908951092A90180E189B908951F9209
:102BD0000F920FB60F9211242F933F938F939F93D1
:102BE00088B392E0892788BB88B78F7E88BF3091F1
:102BF0008800209189007894922F80E0830F911DA6
:102C00009093A1058093A0058AB78370833079F4EF
:102C10008AB721E082278ABF8091A0059091A10503
:102C200090939305809392052093CE0314C08AB7A6
:102C300091E089278ABF8091A0059091A1052091FC
:102C4000920530919305821B930B9093DB06809342
:102C5000DA061092CE039F918F913F912F910F90A2
:102C60000FBE0F901F9018951F920F920FB60F92E4
:102C700011242F933F938F939F9388B78F7B88BFA7
:102C800030918800209189007894922F80E0830F02
:102C9000911D9093A3058093A2058AB7807380331A
:102CA00081F48AB790E189278ABF8091A20590912B
:102CB000A305909395058093940581E08093CF03BD
:102CC00014C08AB790E189278ABF8091A2059091AC
:102CD000A3052091940530919505821B930B909349
:102CE000DD068093DC061092CF039F918F913F9178
:102CF0002F910F900FBE0F901F901895982F88B7A7
:102D00008F7088BF89B78F7089BF992361F09093C6
:102D1000D00382B1806A82B983B1806A83B982B1FB
:102D20008F7A82B908951092D00382B18F7082B9E0
:102D300083B1806F83B989B78F7089BF08958091FF
:102D40000702815080930702882309F049C08091CF
:102D5000CE03813031F488ED9EE09093DB068093C2
:102D6000DA068091CF03813031F488ED9EE09093B4
:102D7000DD068093DC068091F403882319F081300E
:102D800079F518C088B78F7088BF89B78F7089BFF1
:102D90001D9A8AE090E00E94E3118EE18093070281
:102DA00083E08ABF89B7806189BF81E08093F403A3
:102DB0001D98089588B78F7088BF89B78F7089BFB5
:102DC0001F9A8AE090E00E94E3118EE1809307024F
:102DD00080E38ABF89B7806489BF1092F4031F988B
:102DE00008951092BE03209124072F70809124072C
:102DF0009091250782958F70820F980F80912507FB
:102E00009F7082958F70981799F480912507209173
:102E1000C2033091C3038F7090E08217930741F48F
:102E20001092C1031092C003809124078093C503C0
:102E300008951F920F920FB60F920BB60F921124A6
:102E40002F933F934F935F936F937F938F939F93B2
:102E5000AF93BF93EF93FF93309188002091890047
:102E6000789488B78E7F88BF80916A0091E0892727
:102E700080936A00922F80E0830F911D9093CB0680
:102E80008093CA068091CA069091CB062091C8060D
:102E90003091C906821B930B909391058093900506
:102EA0008091CA069091CB069093C9068093C8067C
:102EB0008091BE03813001F1813020F0823009F031
:102EC000DAC06DC080919005909191058B3F91057E
:102ED00008F4D3C080919005909191058E55914052
:102EE00008F0CBC080916A008370823009F0C5C0C1
:102EF0008091BE038F5FBAC080919005909191053B
:102F0000C297F0F0809190059091910587399105D5
:102F1000B8F48091BE038F5F8093BE034091240775
:102F2000509125072091C40381E090E002C0880FF2
:102F3000991F2A95E2F7809590958423952322C0C6
:102F400080919005909191058739910500F18091CC
:102F50009005909191058B3F9105C8F48091BE0337
:102F60008F5F8093BE032091240730912507409105
:102F7000C40381E090E002C0880F991F4A95E2F7F0
:102F8000822B932B909325078093240702C01092E5
:102F9000BE038091C4038F5F8093C4036EC0809191
:102FA000900590919105C297F0F0809190059091D5
:102FB000910587399105B8F48091BE0381508093C3
:102FC000BE0340912407509125072091C40381E05E
:102FD00090E002C0880F991F2A95E2F7809590959E
:102FE0008423952322C08091900590919105873983
:102FF000910558F180919005909191058B3F910535
:1030000020F58091BE0381508093BE032091240758
:10301000309125074091C40381E090E002C0880F01
:10302000991F4A95E2F7822B932B90932507809363
:1030300024078091C4038F5F8093C4038091C403ED
:103040008031DCF00E94F11618C0809190059091BB
:1030500091058B3F910578F08091900590919105B5
:103060008F55914040F48091BE0381508093BE0300
:103070001092C40302C01092BE03FF91EF91BF9162
:10308000AF919F918F917F916F915F914F913F9100
:103090002F910F900BBE0F900FBE0F901F901895A1
:1030A0001F920F920FB60F9211248F9378948091F4
:1030B000BF038F5F8093BF038F910F900FBE0F9060
:1030C0001F9018951F920F920FB60F9211248F9395
:1030D000789480919B0086FD1DC080919B03843075
:1030E00031F482B38F7082BB959A85E005C082B3BC
:1030F0008F7082BB979A87E080939B031092E903BD
:1031000080919A008F7B80939A0080919A008068CA
:1031100080939A008F910F900FBE0F901F9018957B
:103120001F920F920FB60F920BB60F9211248F932E
:103130009F93EF93FF9378945E9914C09091060249
:1031400080915203891728F4569881E080930602F3
:1031500009C0E92FF0E0E352FE4F80818CB99F5FF8
:1031600090930602FF91EF919F918F910F900BBE6C
:103170000F900FBE0F901F901895DF93CF93CDB790
:10318000DEB727970FB6F894DEBF0FBECDBF482F2E
:10319000DE011196EFEFF1E087E001900D92815092
:1031A000E1F780919B03853009F0BFC010924A037C
:1031B0008091BA03882309F05CC08091980388232A
:1031C00051F580917C03882359F126E030E0A6E098
:1031D000B0E0BE016F5F7F4FFD01E21BF30BE60F16
:1031E000F71F80818423FB01E20FF31F882329F05E
:1031F000909187038081892B05C0909187038081FE
:103200008095892380938703215030408FEF2F3F93
:10321000380711F743C180917C03882321F440953E
:10322000409387033BC126E030E0A6E0B0E0BE015A
:103230006F5F7F4FFD01E21BF30BE60FF71F8081ED
:103240008423FB01E20FF31F882331F09091870361
:1032500080818095892304C0909187038081892B88
:1032600080938703215030408FEF2F3F380711F7AD
:1032700015C180919803882351F580917C038823A0
:1032800059F126E030E0A6E0B0E0BE016F5F7F4F6D
:10329000FD01E21BF30BE60FF71F80818423FB0186
:1032A000E20FF31F882329F0909188038081892BF6
:1032B00005C090918803808180958923809388033D
:1032C000215030408FEF2F3F380711F7E7C0809132
:1032D0007C03882321F4409540938803DFC026E0D7
:1032E00030E0A6E0B0E0BE016F5F7F4FFD01E21B62
:1032F000F30BE60FF71F80818423FB01E20FF31F1E
:10330000882331F09091880380818095892304C0BF
:10331000909188038081892B8093880321503040CD
:103320008FEF2F3F380711F7B9C0109249038091F2
:10333000BA03882309F059C080919803882351F576
:1033400080917C03882341F226E030E0A6E0B0E0E3
:10335000BE016F5F7F4FFD01E21BF30BE60FF71F0E
:1033600080818423FB01E20FF31F882329F09091D1
:1033700088038081892B05C0909188038081809586
:10338000892380938803215030408FEF2F3F3807E7
:1033900011F784C080917C03882309F49CCF26E038
:1033A00030E0A6E0B0E0BE016F5F7F4FFD01E21BA1
:1033B000F30BE60FF71F80818423FB01E20FF31F5D
:1033C000882331F09091880380818095892304C0FF
:1033D000909188038081892B80938803215030400D
:1033E0008FEF2F3F380711F759C08091980388233A
:1033F00059F580917C03882309F412CF26E030E050
:10340000A6E0B0E0BE016F5F7F4FFD01E21BF30B52
:10341000E60FF71F80818423FB01E20FF31F88234F
:1034200029F0909187038081892B05C090918703B3
:1034300080818095892380938703215030408FEFCE
:103440002F3F380711F72AC080917C03882309F4A5
:10345000E6CE26E030E0A6E0B0E0BE016F5F7F4F31
:10346000FD01E21BF30BE60FF71F80818423FB01B4
:10347000E20FF31F882331F09091870380818095BC
:10348000892304C0909187038081892B80938703CF
:10349000215030408FEF2F3F380711F727960FB696
:1034A000F894DEBF0FBECDBFCF91DF9108951F927C
:1034B0000F920FB60F920BB60F9211242F933F93DA
:1034C0004F935F936F937F938F939F93AF93BF932C
:1034D000EF93FF93DF93CF930F92CDB7DEB7809139
:1034E0009C00898378942091E903213059F02130A0
:1034F00028F0223081F0233049F526C0898180935D
:10350000EA0303C089818093EB038091E9038F5F15
:103510008093E9031BC089818093EC039091EB03B6
:103520008091EC03981759F48091650091E0892708
:10353000809365008091EB030E94BD1805C08091C7
:1035400065008227809365001092E9030F90CF9168
:10355000DF91FF91EF91BF91AF919F918F917F91FB
:103560006F915F914F913F912F910F900BBE0F90F4
:103570000FBE0F901F9018951F920F920FB60F92CB
:103580000BB60F9211242F933F938F939F93EF933A
:10359000FF93F894809191032091930390E002C0EF
:1035A000959587952A95E2F780FF3BC0809194031B
:1035B0008823A9F42BB33091930381E090E002C0FB
:1035C000880F991F3A95E2F7282B2BBB81E0809357
:1035D0009403E0919303F0E0E255FA4F1FC03BB330
:1035E0002091930381E090E002C0880F991F2A95F3
:1035F000E2F7809583238BBB109294038091930311
:103600008F5F8093930380919303883010F0109222
:103610009303E0919303F0E0E453FA4F808183BD7C
:103620000DC08CE983BD809193038F5F80939303DA
:1036300080919303883010F0109293037894FF9157
:10364000EF919F918F913F912F910F900BBE0F9013
:103650000FBE0F901F901895A82F662389F165362D
:1036600008F064E620919103B0E081E090E00A2E3A
:1036700002C0880F991F0A94E2F7282B2093910328
:1036800030919003282F209523232093900320919D
:103690009503822B80939503FD01E651F94F6083DA
:1036A000FD01EE5EF84F6083665DFD01E255FA4F65
:1036B00060836A5282E7861BA453BA4F8C930895A5
:1036C0002091910381E090E002C0880F991FAA9594
:1036D000E2F78095282320939103209190032823DB
:1036E000209390032091950382238093950308955E
:1036F000682F80E00E942C1B0895682F81E00E94B3
:103700002C1B0895682F82E00E942C1B0895682FBF
:1037100083E00E942C1B0895682F84E00E942C1BDC
:103720000895682F85E00E942C1B0895682F86E07D
:103730000E942C1B0895682F87E00E942C1B08957F
:10374000F8949BB3982B9BBB78940895F8949BB303
:10375000809598239BBB789408958091630084FDA5
:103760002AC08091E7039091E80301969093E803C3
:103770008093E703815D974010F11092E803109267
:10378000E7038091C2039091C3030F9729F410922D
:10379000C3031092C20309C08091C2039091C30376
:1037A00001969093C3038093C20381E08093E60364
:1037B0001092E50304C01092E8031092E703809191
:1037C000E603813089F40E94A0158091E5038F5FA4
:1037D0008093E5038150853638F01092E50310920E
:1037E000E60380E00E94A015089508959093810358
:1037F0008093800310927F030895809384037093D5
:1038000083036093820310927F0308959091E403F1
:1038100080918703981719F58091840380FF1FC05A
:103820008091E2039091E30320918203309183031E
:1038300001969093E3038093E203019728173907D9
:1038400090F4809185038160809385038091820349
:10385000909183039093E3038093E20304C010925A
:10386000E3031092E203809187038093E4030895B9
:1038700020918A032130F1F48091E1038823D1F46F
:103880002093E1038091800390918103892BE1F0E3
:10389000809180039091810301979093810380939D
:1038A00080038091800390918103892B69F4209398
:1038B0007F03089580918A03882331F48091E10386
:1038C000813011F41092E1030895CF93DF93EC015E
:1038D0001092A1031092A0031092A3031092A203CE
:1038E0000E94381C80917F03882391F48091850386
:1038F000882371F48091A0039091A1038C179D07F8
:1039000078F38091A2039091A3038C179D0740F355
:10391000DF91CF910895982F20918A03213009F0EB
:103920008AC18091DD03882309F085C12093DD03DE
:103930002091DF033091E0032F5F3F4F3093E0038E
:103940002093DF03492F4551433038F0892F8750AA
:10395000833018F08A50833028F48091870381FDEA
:103960001AC013C0892F8150833018F08A508330D9
:1039700028F48091870381FD0EC00BC0892F8450ED
:10398000833018F08A50833030F48091870385FDAE
:1039900002C0109289038091DE038A3009F4F3C0DB
:1039A000843109F40DC1882309F04FC1433008F078
:1039B00043C08091870381FF02C09531C1F080919F
:1039C000870381FF06C08091870382FF02C0963182
:1039D00071F08091870381FF0CC08091870382FF83
:1039E00008C08091870383FF04C0973111F48AE0F7
:1039F00020C08091870385FF02C09531C9F0809176
:103A0000870384FF06C08091870385FF02C096313B
:103A100079F08091870383FFB1C08091870384FF91
:103A2000ADC08091870385FFA9C0973109F0A6C07A
:103A300084E18093DE03A2C0892F8150863020F07C
:103A40008A50863008F050C0892F8B50863008F499
:103A50009A508091870381FF07C0913029F48091AB
:103A600087038C7309F087C08091870381FF07C0AB
:103A70008091870382FF03C0923009F47CC080915B
:103A8000870381FF0BC08091870382FF07C080916D
:103A9000870383FF03C0933009F46DC080918703CF
:103AA00085FF07C0943029F4809187038E7109F057
:103AB00062C08091870384FF07C08091870385FFE0
:103AC00003C0953009F457C08091870383FF56C027
:103AD0008091870384FF52C08091870385FF4EC089
:103AE000963009F04BC047C0892F8750833020F0B3
:103AF0008A50833008F042C0892F8151833008F406
:103B00009A508091870381FD04C08091870385FFCF
:103B100006C0973021F4809187038C7161F5809104
:103B2000870381FF04C08091870382FD08C08091D4
:103B3000870384FF06C08091870385FF02C0983009
:103B4000D1F08091870381FF08C08091870382FFB5
:103B500004C08091870383FD0CC08091870383FF9D
:103B60000DC08091870384FF09C08091870385FF82
:103B700005C0993019F481E0809389031092E00325
:103B80001092DF0308958091870385FF02C095316D
:103B9000A9F18091870384FF06C08091870385FF88
:103BA00002C0963159F18091870383FF38C080911C
:103BB000870384FF34C08091870385FF30C01CC019
:103BC0008091870381FF02C09531C1F08091870306
:103BD00081FF06C08091870382FF02C0963171F099
:103BE0008091870381FF1BC08091870382FF17C0EC
:103BF0008091870383FF13C0973189F48091B501C9
:103C00009091B6012817390730F41092DE0381E055
:103C10008093890304C01092DE031092890380917F
:103C2000B5019091B6018217930778F41092890339
:103C30001092DE03089580918A03882331F48091E5
:103C4000DD03813011F41092DD030895282F909147
:103C50008A03913009F0AAC18091DC03882309F01E
:103C6000A5C19093DC038091D1039091D20301967A
:103C70009093D2038093D103922F9551933038F0D3
:103C8000822F8750833018F08A50833028F4809137
:103C9000870380FD1AC013C0822F8150833018F033
:103CA0008A50833028F48091870380FD0EC00BC0BA
:103CB000822F8450833018F08A50833030F4809102
:103CC000870386FD02C0109289038091D3038A3056
:103CD00009F401C1843109F422C1882309F070C1BB
:103CE000933008F04EC08091870380FF06C02531D5
:103CF00021F4809187038E77C1F48091870380FF40
:103D000006C08091870381FF02C0263171F0809147
:103D1000870380FF0CC08091870381FF08C08091DA
:103D2000870382FF04C0273111F48AE027C0809105
:103D3000870386FF09C0253139F48091870390E01D
:103D40008F739070892BC9F48091870385FF06C01B
:103D50008091870386FF02C0263179F08091870326
:103D600084FFB4C08091870385FFB0C08091870332
:103D700086FFACC0273109F0A9C084E18093D3034A
:103D8000A5C0822F8150863020F08A50863008F0FE
:103D900053C0822F8B50863008F42A5080918703BD
:103DA00080FF07C0213029F4809187038E7709F0C6
:103DB0008AC08091870380FF07C08091870381FFBD
:103DC00003C0223009F47FC08091870380FF0BC0BD
:103DD0008091870381FF07C08091870382FF03C022
:103DE000233009F470C08091870386FF0AC0243015
:103DF00041F48091870390E08F739070892B09F0D4
:103E000062C08091870385FF07C08091870386FF8A
:103E100003C0253009F457C08091870384FF56C042
:103E20008091870385FF52C08091870386FF4EC033
:103E3000263009F04BC047C0822F8750833020F0D6
:103E40008A50833008F042C0822F8151833008F4B9
:103E50002A508091870380FD04C08091870386FFEC
:103E600006C0273021F4809187038E7361F580911D
:103E7000870380FF04C08091870381FD08C0809183
:103E8000870385FF06C08091870386FF02C0283024
:103E9000D1F08091870380FF08C08091870381FF64
:103EA00004C08091870382FD0CC08091870384FF4A
:103EB0000DC08091870385FF09C08091870386FF2D
:103EC00005C0293019F481E0809389031092D20350
:103ED0001092D10308958091870386FF09C0253190
:103EE00039F48091870390E08F739070892BC9F526
:103EF0008091870385FF06C08091870386FF02C0FB
:103F0000263179F18091870384FF40C08091870337
:103F100085FF3CC08091870386FF38C020C0809118
:103F2000870380FF06C0253121F4809187038E77B7
:103F3000C1F48091870380FF06C08091870381FFD1
:103F400002C0263171F08091870380FF1FC08091ED
:103F5000870381FF1BC08091870382FF17C0273131
:103F6000A9F42091D1033091D2038091B5019091B1
:103F7000B6012817390730F41092D30381E08093FB
:103F8000890304C01092D303109289032091D103B6
:103F90003091D2038091B5019091B60182179307B9
:103FA00078F4109289031092D303089580918A03C4
:103FB000882331F48091DC03813011F41092DC030A
:103FC0000895EF92FF920F9380936E0360937103B5
:103FD0004093AD0120936F0300937003F09273033D
:103FE000E09272030F91FF90EF9008959093B401C7
:103FF0008093B30184E1982F961B90935903841BFF
:104000008093860308958091870382FF08C0809182
:10401000870383FF04C08091870384FD1CC08091C7
:10402000870382FF07C08091870383FF03C08091CD
:1040300028073EC08091870383FF09C080918703D2
:1040400084FF05C0809127076091280733C08091C5
:10405000870383FF04C060912707862F2BC08091C0
:10406000870382FF03C08091290722C080918703C4
:1040700084FF05C080912707609129071BC08091AC
:10408000870381FF03C080912A0712C080918703B4
:1040900085FF05C08091270760912A070BC080919A
:1040A000870380FF0AC08091AC01873031F480E043
:1040B000609127070E94921408958091870386FFDC
:1040C00009C08091AC01873029F48091270760E016
:1040D0000E9492140895DF92EF92FF920F931F9324
:1040E000DF93CF9300D0CDB7DEB7E82EF62E8A014E
:1040F00019821A828091C60594E1292F281B2093EA
:1041000027078091C705292F281B20932807809116
:10411000C805292F281B209329078091C905292F1D
:10412000281B20932A078091CA05981B90932B0780
:104130001092A5031092A4031092A7031092A60355
:10414000DD24D3948981882309F06FC00E94032065
:104150008091A4039091A5030817190708F05FC088
:104160008091A6039091A7030817190708F057C07C
:104170001092A1031092A0031092A3031092A20325
:104180001092A5031092A4031092A7031092A60305
:1041900080912707F81600F5882319F08150809345
:1041A000270780912807882319F0815080932807DA
:1041B00080912907882319F08150809329078091E5
:1041C0002A07882319F0815080932A0780912B07B2
:1041D000882329F1815021C08F1508F5843119F009
:1041E0008F5F8093270780912807843119F08F5FB4
:1041F0008093280780912907843119F08F5F80937D
:10420000290780912A07843119F08F5F80932A074C
:1042100080912B07843119F08F5F80932B07809159
:1042200087038E218E1509F4DA828A81813009F0A4
:1042300089CF80E060E00E9426140F900F90CF910C
:10424000DF911F910F91FF90EF90DF900895CF9233
:10425000DF92EF92FF920F931F93DF93CF9300D0E3
:10426000CDB7DEB77C01D62E8A0119821A828091E1
:10427000C60594E1292F281B209327078091C705A5
:10428000292F281B209328078091C805292F281B38
:10429000209329078091C905292F281B20932A07DD
:1042A0008091CA05981B90932B071092A10310923E
:1042B000A0031092A3031092A2031092A5031092E0
:1042C000A4031092A7031092A603CC24C39489815F
:1042D000882309F070C00E9403208091A40390916C
:1042E000A5030817190708F057C08091A6039091FD
:1042F000A7030817190708F04FC01092A5031092E2
:10430000A4031092A7031092A60380912707D81642
:1043100000F5882319F081508093270780912807A2
:10432000882319F0815080932807809129078823DA
:1043300019F081508093290780912A07882319F06A
:10434000815080932A0780912B07882329F181507F
:1043500021C08D1508F5843119F08F5F80932707F0
:1043600080912807843119F08F5F8093280780910E
:104370002907843119F08F5F8093290780912A07DC
:10438000843119F08F5F80932A0780912B07843145
:1043900019F08F5F80932B078091A0039091A10368
:1043A000E816F90640F48091A2039091A303E81661
:1043B000F90608F4CA828A81813009F088CF80E04A
:1043C00060E00E9426140F900F90CF91DF911F9113
:1043D0000F91FF90EF90DF90CF900895DF93CF93F0
:1043E00000D0CDB7DEB7682F8091BF01898380915F
:1043F000C0018A838091BA03882339F4809196039F
:104400008093BF011092C00106C080919603109264
:10441000BF018093C00180E00E9426148091C605F0
:104420009091C6058093BB039093BC038091880351
:1044300086FFFCCF8091880386FF0CC080918703A4
:1044400082FD08C08091870383FD04C080918703AB
:1044500084FFF0CF8091870381FD0CC0809187039A
:1044600082FD08C08091870383FD04C0809187038B
:1044700084FFF0CF80E060E00E9426148091C605A2
:104480009091C6058093BB039093BC0389819A8168
:104490008093BF019093C0010F900F90CF91DF9157
:1044A0000895DF93CF9300D0CDB7DEB7982F8091DA
:1044B000BF0189838091C0018A838091BA038823D8
:1044C00039F4809196031092BF018093C00106C019
:1044D000809196038093BF011092C001892F60E004
:1044E0000E9426148091C6059091C6058093BB0357
:1044F0009093BC038091880380FFFCCF8091880358
:1045000080FF0CC08091870384FD08C080918703E1
:1045100083FD04C08091870382FFF0CF80918703E1
:1045200085FD0CC08091870384FD08C080918703BE
:1045300083FD04C08091870382FFF0CF80E060E0BC
:104540000E9426148091C6059091C6058093BB03F6
:104550009093BC0389819A818093BF019093C0019D
:104560000F900F90CF91DF9108958091BF018F3F01
:1045700069F58091C0018F3F49F52091A0033091EA
:10458000A1038091B3019091B4012817390750F12C
:104590002091A2033091A3038091B3019091B401C3
:1045A00028173907F8F01092A1031092A003109277
:1045B000A3031092A2038091B3019091B401892BBF
:1045C00089F01092BB031092BC0308951092A103CE
:1045D0001092A0031092A3031092A2031092BB03A7
:1045E0001092BC0308950F9394E1392F381B309338
:1045F000F206892F861B8093F306892F841B8093F4
:10460000F406892F821B8093F506901B9093F60683
:104610000F9108951F920F920FB60F920BB60F9243
:1046200011242F933F938F939F93EF93FF9378944D
:1046300086B1877386B9E0919C03F0E085B1EC52B6
:10464000FA4F8083E0919C03F0E0EC52FA4F8081B6
:104650008D3870F030919D0320919C0381E090E0B3
:1046600002C0880F991F2A95E2F78095832314C012
:10467000E0919C03F0E0EC52FA4F8081823370F4B9
:1046800080919D0390919C0321E030E002C0220FB5
:10469000331F9A95E2F7822B80939D0380919C03B0
:1046A0008F5F80939C0380919C03883010F0109260
:1046B0009C03FF91EF919F918F913F912F910F90CC
:1046C0000BBE0F900FBE0F901F90189580919C030A
:1046D000806687B986B1886C86B9089592B39F7059
:1046E00092BB92B321E030E0082E02C0220F331FAC
:1046F0000A94E2F7922B92BB80939B0308958091DA
:10470000DB03882321F0833009F04BC027C081E010
:1047100080934A0380914903882339F0109249031A
:1047200080914C038F5F80934C0380919A0080644A
:1047300080939A008091D60180939C0082B38F7001
:1047400082BB949A84E080939B038091AF018F5F3A
:104750008093AF0183E08093DB03089581E0809331
:10476000490380914A03882339F010924A038091CB
:104770004B038F5F80934B0380919A0080648093FA
:104780009A008091D70180939C0082B38F7082BB86
:10479000969A86E080939B038091B0018F5F80930F
:1047A000B0011092DB03089580918C03882321F5DA
:1047B0008091870382FD39C08091870384FD55C0B5
:1047C0008091870381FD2BC08091870385FD47C0C1
:1047D0008091870380FF06C08091AC01873011F47F
:1047E00081E044C08091870386FF4AC08091AC017C
:1047F000873009F045C02DC090918C039130E9F4C9
:104800008091870380FF07C08091AC01873019F445
:104810009093D80108958091870381FF02C082E0C0
:1048200025C08091870382FF02C084E01FC0809171
:10483000870383FF25C088E019C080918C038230F4
:10484000F9F48091870386FF06C08091AC01873020
:1048500011F480E40BC08091870385FF02C080E2E1
:1048600005C08091870384FF04C080E18093D80154
:1048700008958091870383FF03C088E08093D80167
:1048800008951F920F920FB60F920BB60F9211243C
:104890002F933F934F935F936F937F938F939F9348
:1048A000AF93BF93EF93FF93789480918A0391E045
:1048B000892780938A030E947F2380918A0388231B
:1048C00009F49CC08091A0039091A103019690935C
:1048D000A1038093A0038091A2039091A30301966A
:1048E0009093A3038093A2038091A4039091A503C6
:1048F00001969093A5038093A4038091A6039091C1
:10490000A70301969093A7038093A6038091A80321
:104910009091A90301969093A9038093A803809195
:10492000AA039091AB0301969093AB038093AA03E3
:104930008091AC039091AD0301969093AD03809369
:10494000AC038091AE039091AF0301969093AF03B7
:104950008093AE038091B0039091B1030196909340
:10496000B1038093B0038091B2039091B303019699
:104970009093B3038093B2038091B4039091B503F5
:1049800001969093B5038093B4030E94061C09B668
:1049900000FE1EC00E94AD1B8091C0039091C10318
:1049A00001969093C1038093C0038091C0039091BE
:1049B000C103835C914060F01092C1031092C00368
:1049C0001092C50310921A0710921B0710921C0731
:1049D000809151038F5F809351038150853140F066
:1049E0008091BD03882321F4109251030E94C314C7
:1049F0008091D003882311F00E949F160E94F31229
:104A00000E94E71380919C03806687B986B1886C09
:104A100086B90E94D423FF91EF91BF91AF919F91EE
:104A20008F917F916F915F914F913F912F910F9057
:104A30000BBE0F900FBE0F901F9018951F920F92F4
:104A40000FB60F920BB60F9211242F933F934F93F3
:104A50005F936F937F938F939F93AF93BF93EF93E6
:104A6000FF93DF93CF9300D0CDB7DEB71A828CB11E
:104A7000898378948091DA038430C1F1853050F4D1
:104A8000813019F18130A8F0823059F1833009F07A
:104A9000FFC01BC08B30E1F18C3020F48A3009F06C
:104AA000F7C02CC0843109F4B0C0853109F0F0C0E2
:104AB000BAC089818A3A31F48091A901813011F418
:104AC0008AE006C089818B3131F48091DA038F5FEF
:104AD0008093DA03DDC08981853A09F0D9C084E189
:104AE000F7CF8981882309F09BC0EFCF89818E3071
:104AF00009F096C0E0E0F8EF0995CAC089818535D4
:104B000009F08EC08091A901813009F089C080C070
:104B1000E091D703F0E08981E850F94F80838091DC
:104B2000D7038F5F8093D7038091D703843008F435
:104B3000AFC02091F8068091F9069091FA06820F95
:104B4000890F8A831092DA039091FB068A81981765
:104B500009F09EC01092C1031092C0038091F80624
:104B600080931A078091F90680931B078091FA06BB
:104B700080931C071092C50380911A0784FF05C01B
:104B80008091C50381608093C50380911A0785FFDA
:104B900005C08091C50388608093C50380911A0782
:104BA00086FF05C08091C50382608093C503809114
:104BB0001A0787FF05C08091C50384608093C503F1
:104BC00080911B0784FF05C08091C503806180939D
:104BD000C50380911B0785FF05C08091C5038068D0
:104BE0008093C50380911B0786FF05C08091C50394
:104BF00080628093C50380911B0787FF49C0809125
:104C0000C50380648093C50343C089818A3541F41C
:104C10008091DA038F5F8093DA031092D70338C054
:104C20001092DA0335C0E091D703F0E08981E850B3
:104C3000F94F80838091D7038F5F8093D703809152
:104C4000D703813128F11A8220E030E08A81F9010E
:104C5000E850F94F9081980F9A832F5F3F4F203192
:104C60003105A1F71092DA03909108078A8198170D
:104C700079F420E030E0F901E850F94F8081F90142
:104C8000E452FA4F80832F5F3F4F2031310599F76F
:104C90000F900F90CF91DF91FF91EF91BF91AF9166
:104CA0009F918F917F916F915F914F913F912F9144
:104CB0000F900BBE0F900FBE0F901F901895813074
:104CC00059F48091D601862B8093D6018091D7012B
:104CD000862B8093D70108958091D601962F9095C9
:104CE00089238093D6018091D70198239093D7018F
:104CF00008959091D6019F7C9093D6019091D70111
:104D00009F7C9093D7019091D601843008F083E086
:104D10008295807F982B9093D6019091D701892B13
:104D20008093D70108950F931F931092BD0389B705
:104D3000816089BF1092C3031092C20381E061E0D9
:104D40000E945F2681E064E00E945F2600E010E0A0
:104D50008091D4058B3040F08091D405823B20F4C3
:104D6000809162008E7F03C0809162008160809399
:104D700062008091D5058B3040F08091D505823B53
:104D800020F4809162008D7F03C080916200826078
:104D9000809362008091D6058B3040F08091D605DB
:104DA000823B20F4809162008B7F03C0809162007F
:104DB0008460809362008091D7058B3040F08091B1
:104DC000D705823B20F480916200877F03C08091E9
:104DD00062008860809362008091D8058B3040F03B
:104DE0008091D805823B20F4809162008F7E03C0C1
:104DF000809162008061809362008091D9058B3040
:104E000040F08091D905823B20F4809162008F7D33
:104E100003C0809162008062809362008091DA0515
:104E20008B3040F08091DA05823B20F48091620063
:104E30008F7B03C0809162008064809362008091C8
:104E4000DB058B3040F08091DB05823B20F48091C4
:104E500062008F7703C08091620080688093620057
:104E60008091DC05882329F08091DC050E94781B65
:104E70000EC080E00E94781B8091E60580FF04C090
:104E8000F894D89A789403C0F894D898789480913C
:104E9000DD05882329F08091DD050E947D1B0EC071
:104EA00080E00E947D1B8091E60581FF04C0F8949C
:104EB000D99A789403C0F894D99878948091DE05B3
:104EC000882329F08091DE050E94821B0EC080E0BD
:104ED0000E94821B8091E60582FF04C0F894DA9A52
:104EE000789403C0F894DA9878948091DF05882349
:104EF00029F08091DF050E94871B0EC080E00E9490
:104F0000871B8091E60583FF04C0F894DB9A7894B0
:104F100003C0F894DB9878948091E005882329F009
:104F20008091E0050E948C1B0EC080E00E948C1BCB
:104F30008091E60584FF04C0F894DC9A789403C05D
:104F4000F894DC9878948091E105882329F0809189
:104F5000E1050E94911B0EC080E00E94911B809190
:104F6000E60585FF04C0F894DD9A789403C0F894B0
:104F7000DD9878948091E205882329F08091E205FC
:104F80000E94961B0EC080E00E94961B8091E60551
:104F900086FF04C0F894DE9A789403C0F894DE98F3
:104FA00078948091E305882329F08091E3050E949D
:104FB0009B1B0EC080E00E949B1B8091E60587FF33
:104FC00004C0F894DF9A789403C0F894DF9878943A
:104FD0008091E405882311F400E00BC08091E40582
:104FE00087FF02C004E105C08091E40518160CF4A7
:104FF0000CEE8091E505882311F410E00BC0809140
:10500000E50587FF02C014E105C08091E50518168B
:105010000CF41CEE802F612F0E94261499CE682F6D
:105020008091D801883061F48091D801803141F4B9
:10503000862F0E9426148091C6059091C70553C003
:105040008091D801843051F48091D801883031F4B6
:10505000862F0E9426148091C70543C08091D801F5
:105060008830D1F18091D801843031F4862F0E94AC
:1050700026148091C80535C08091D801803141F453
:10508000862F0E9426148091C6059091C8052BC0DA
:105090008091D801823031F4862F0E9426148091AD
:1050A000C9051FC08091D801803241F4862F0E942B
:1050B00026148091C6059091C90515C08091D8012C
:1050C000803419F4862F619508C08091D801813011
:1050D00019F4862F819501C0862F0E942614809195
:1050E000C6059091C6058093BB039093BC030895B9
:1050F000682F8091870382FF08C08091870383FF18
:1051000004C08091870384FD70C08091870382FF73
:105110000AC08091870383FF06C0862F0E94261451
:105120008091C70567C08091870383FF0CC0809181
:10513000870384FF08C0862F0E9426148091C6052D
:105140009091C70559C08091870383FD4EC080911F
:10515000870382FF06C0862F0E9426148091C8050F
:1051600049C08091870384FF08C0862F0E942614BF
:105170008091C6059091C8053FC08091870381FF4B
:1051800006C0862F0E9426148091C90533C08091E5
:10519000870385FF08C0862F0E9426148091C605CC
:1051A0009091C90529C08091870380FF0BC0809131
:1051B000AC01873039F4862F0E9426149091C605E1
:1051C00084E11AC08091870386FF0FC08091AC01F3
:1051D000873059F4862F0E9426148091C60580934B
:1051E000BB0384E18093BC030895862F0E9426149C
:1051F0008091C6059091C6058093BB039093BC0334
:1052000008951F93182F1092D90380918C0388233F
:1052100009F04AC08091870382FF08C0809187030C
:1052200083FF04C08091870384FDD6C080918703EB
:1052300082FF04C08091870383FDDDC080918703D6
:1052400083FF04C08091870384FDB9C080918703E8
:1052500081FF04C08091870382FDCDC080918703C8
:1052600083FF04C08091870385FDA9C080918703D7
:1052700083FDB2C08091870382FD37C08091870390
:1052800084FD8CC08091870381FDC4C08091870319
:1052900085FD77C08091870380FF4CC08091AC0171
:1052A000873009F047C00DC080918C03813009F030
:1052B0004BC08091870380FF10C08091AC01873084
:1052C00061F4812F612F0E9426149091C60584E11C
:1052D0008093BB039093BC03B0C08091870381FD92
:1052E00099C08091870382FF09C0812F612F0E949E
:1052F00026148091C8059091C605EACF8091870356
:1053000082FF04C08091870383FD75C0809187036D
:1053100083FD62C08091870383FF04C0809187036F
:1053200084FD4DC08091870384FD38C08091870340
:1053300085FD27C08091870386FF7CC08091AC01EA
:10534000873009F077C00DC080918C03823009F05E
:1053500074C08091870386FF10C08091AC018730B4
:1053600061F4812F612F0E9426148091C6058093DD
:10537000BB0384E18093BC0360C08091870385FFF9
:1053800009C0812F612F0E9426148091C60590913B
:10539000C9059ECF8091870384FF09C0812F612FAB
:1053A0000E9426148091C6059091C80591CF8091E6
:1053B000870383FF0DC08091870384FF09C0812F7D
:1053C000612F0E9426148091C6059091C70580CF59
:1053D0008091870383FF07C0812F612F0E942614CD
:1053E0008091C60588CF8091870382FF0BC0809192
:1053F000870383FF07C0812F612F0E9426148091AD
:10540000C70579CF8091870382FD6FCF8091870395
:1054100081FF07C0812F612F0E9426148091C9054A
:105420006ACF8091870380FF05C08091AC018730EF
:1054300009F447CF81E08093D9038091D90381306B
:1054400009F076C08091D801883039F4812F612F1E
:105450000E9426148091F80549C08091D8018430BB
:1054600061F08091D801803149F18091D80182307A
:1054700059F48091AC01873039F4812F612F0E945B
:1054800026148091FA0532C08091D801823071F4DF
:105490008091AC01853051F4812F8195612F0E945C
:1054A00026148091F8059091F9053EC08091D801AD
:1054B000803269F48091AC01873049F4812F612FEB
:1054C0000E9426148091F8059091FA052DC08091D4
:1054D000D801803271F48091AC01853051F4812F74
:1054E0001195612F0E9426148091F9059091F8057D
:1054F0001BC08091D801813051F4812F8195612F9B
:105500000E9426148091C6059091C7050DC0809118
:10551000D801803469F4812F1195612F0E942614DF
:105520008091C7059091C6058093BB039093BC03FF
:105530001F9108952091A0033091A10380917003E1
:1055400090E02817390708F442C02091A203309157
:10555000A3038091700390E028173907C0F1809170
:10556000870390E08F779070892B21F08091BA03A8
:10557000882359F08091880390E08F779070892B71
:1055800049F08091BA03833029F480916D030E9421
:10559000012906C080916D0360916D030E9426145D
:1055A00080916D03815080936D0390916D03809184
:1055B0006C03981721F480916C0380936D03109213
:1055C000A1031092A0031092A3031092A2030895C6
:1055D0001092A1031092A0031092A3031092A203B1
:1055E00080916E03813009F059C080916D0388234A
:1055F00069F09091AD0180916B03891718F4809147
:105600006B0302C08091AD0180936D030E94381C32
:1056100080917F03882361F480918503882341F47E
:105620000E949A2A90916C0380916D03981771F7EC
:1056300080E060E00E9426148091740390917503CD
:10564000019761F51092A1031092A0031092A30399
:105650001092A2032091A0033091A10380917203C4
:105660009091730397FF03C0909581959F4F2817E2
:10567000390780F32091A2033091A3038091720334
:105680009091730397FF03C0909581959F4F2817C2
:10569000390700F31092750310927403089581E0A6
:1056A00090E090937503809374032091A003309150
:1056B000A10380916F0390E02817390728F120910A
:1056C000A2033091A30380916F0390E0281739075C
:1056D000D8F080916D030E94012980916D038F5F46
:1056E00080936D0390916D0380916B03891720F473
:1056F00080916B0380936D031092A1031092A0031D
:105700001092A3031092A20380916D030E940129BD
:10571000089580938C030895809378031092AD03CD
:105720001092AC031092AF031092AE031092B1032B
:105730001092B0031092B3031092B2030895DF9356
:10574000CF9300D000D00F92CDB7DEB79C0160E1BF
:1057500077E20E9431527B836A8380917903909132
:105760007A03019690937A0380937903C90160E1EB
:1057700077E20E943152FC019D838C838C819D8154
:1057800068EE73E00E9431527B836A838A819B8139
:105790009C0143E0220F331F4A95E1F7880F991FC0
:1057A000280F391F2983CF0168EE73E00E94315220
:1057B0009D838C838C819D8164E670E00E943152D0
:1057C0007B836A8329818A819B81280F2983809129
:1057D000790390917A03019690937A0380937903E9
:1057E000CF0164E670E00E9431529D838C838C81EE
:1057F0009D816AE070E00E9431527B836A838A81D6
:105800009B819C01A3E0220F331FAA95E1F7880F2B
:10581000991F280F391F2983CF016AE070E00E9489
:1058200031529B838A8329818A819B81280F298316
:105830008091790390917A03019690937A038093F3
:1058400079030F900F900F900F900F90CF91DF91F1
:1058500008958091AC039091AD03885E9D4F08F050
:105860008AC08091AE039091AF03885E9D4F08F08F
:1058700082C080917803813059F5809179039091AD
:105880007A03019690937A03809379032091AC0375
:105890003091AD038091AE039091AF032817390783
:1058A00081F02091AC033091AD038091AE039091D3
:1058B000AF032817390728F48091AE039091AF0306
:1058C00004C08091AC039091AD030E949F2B37C020
:1058D00080917803823009F045C0809179039091DE
:1058E0007A03019690937A03809379032091AC0315
:1058F0003091AD038091AE039091AF032817390723
:1059000081F02091AC033091AD038091AE03909172
:10591000AF032817390728F48091AE039091AF03A5
:1059200004C08091AC039091AD030E949F2B109214
:10593000AD031092AC031092AF031092AE038091AE
:10594000B1019091B20101969093B2018093B1019F
:105950008091B1019091B2018436910570F010925E
:10596000780308951092AD031092AC031092AF0328
:105970001092AE030895109278030895EF92FF926B
:105980001F93CF93DF93182F7B01EA010E94E82A2F
:1059900080E060E00E9426140E94381C80917F0302
:1059A0008823A9F480918503882389F489E89BE002
:1059B0000E94B215C7010E94651C80E090E00E9421
:1059C000B215115021F0CE010E94651CE5CF109256
:1059D0007F0310928103109280030E94292CDF9193
:1059E000CF911F91FF90EF900895EF92FF921F9338
:1059F000CF93DF93182F7B01EA010E94E82A80E011
:105A000060E00E9426140E94381C80917F03882346
:105A100099F480918503882379F481E00E94A01590
:105A2000C7010E94651C80E00E94A015115021F062
:105A3000CE010E94651CE7CF10927F031092810374
:105A4000109280030E94292CDF91CF911F91FF902B
:105A5000EF9008958091630084FF05C01092B50314
:105A60001092B40308958091630084FD1BC080915F
:105A7000B4039091B5038D5D9540A0F081E062E3A1
:105A800070E040E050E00E94F52C8091D8038F5FD9
:105A90008093D803853010F01092D8031092B5038C
:105AA0001092B40308951F93DF93CF930F92CDB755
:105AB000DEB7182F19820E94E82A80918403882378
:105AC00011F081E08983109285031092840380E0B5
:105AD00060E00E9426148091630084FDFCCF8AE080
